:1000000009C021C020C01FC01EC01DC01CC01BC015
:1000100031C019C011241FBECFE9CDBF10E0A0E64A
:10002000B0E0ECEDF3E002C005900D92A836B10708
:10003000D9F720E0A8E6B0E001C01D92A837B207CA
:10004000E1F73DD0C9C1DCCF27E030E090E0AC0162
:10005000022E02C0559547950A94E2F740FF02C070
:10006000C29A01C0C298C09A0000C09821503109BC
:1000700070F708951F920F920FB60F9211248F936D
:100080009F93AF93BF938091680090916900A09176
:100090006A00B0916B000196A11DB11D80936800AC
:1000A00090936900A0936A00B0936B00BF91AF91E9
:1000B0009F918F910F900FBE0F901F90189583B74F
:1000C000836083BF8FB583608FBDF894A89580E46B
:1000D00081BD789417B886B1876886B9B89AB99AFD
:1000E000BA9ABB9AC398CC24CA94DC2CE12CF12C8C
:1000F0008091680090916900A0916A00B0916B00B6
:1001000034E0880F991FAA1FBB1F3A95D1F7409181
:100110007400509175006091760070917700841B97
:10012000950BA60BB70B893C9105A105B10528F4E9
:1001300004E610E0CCE6D0E024C080916800909105
:100140006900A0916A00B0916B0024E0880F991FAC
:10015000AA1FBB1F2A95D1F7809374009093750056
:10016000A0937600B0937700CCE6D0E072D0A701E0
:1001700096017CD06993799380E0C437D807B1F7B2
:10018000D7CFF80181918F019FB59F7D9FBDC19809
:100190005BDFB8808981229657DF8B2D55DF8FB5C5
:1001A0008F7D8FBDC19AC3988FE599E00197F1F7D4
:1001B00000C00000EFE5F9E03197F1F700C0000062
:1001C000C39AF0E0C437DF07E1F692CFA0E0B0E0D9
:1001D000EBEEF0E08AC0EC01688179818A819B8135
:1001E000611571058105910521F464E279ED8BE5D6
:1001F00097E02DE133EF41E050E038D049015A015A
:1002000027EA31E440E050E04DD069017A01C501B0
:10021000B4012CEE34EF4FEF5FEF44D0022F132FD9
:100220009A01D701C601800F911FA21FB31FB7FF0C
:1002300003C00197A109B04888839983AA83BB832F
:10024000BC01CD019F77CDB7DD27ECE065C0BEDFF7
:10025000089580E690E0BADF08956093600070939F
:10026000610080936200909363000895052E97FBD0
:1002700016F400940FD057FD05D05ED007FC02D0D5
:1002800046F408C050954095309521953F4F4F4F0B
:100290005F4F089590958095709561957F4F8F4F32
:1002A0009F4F089568940013E894A0E0B0E0EAE559
:1002B000F1E01DC0EFEFE7F959016A015E23550F28
:1002C000EE08FE2C87019B01AC019E23990F660B63
:1002D000762FCB0153D0CDB7DD27EAE01FC02F9298
:1002E0003F924F925F926F927F928F929F92AF92C6
:1002F000BF92CF92DF92EF92FF920F931F93CF9313
:10030000DF93CDB7CA1BCDBFDD2709942A88398872
:1003100048885F846E847D848C849B84AA84B9849D
:10032000C884DF80EE80FD800C811B81AA81D98189
:10033000CE0FCDBFCA2F0895A1E21A2EAA1BBB1B58
:10034000FD010DC0AA1FBB1FEE1FFF1FA217B307A1
:10035000E407F50720F0A21BB30BE40BF50B661FB7
:10036000771F881F991F1A9469F76095709580957B
:1003700090959B01AC01BD01CF010895DF93CF9310
:100380009F92A0E49A2E0024D001E001F00116957E
:100390000795F794E794D794C794B794A79448F433
:1003A0001068A20FB31FC41FD51FE61FF71F081E3A
:1003B000191E220F331F441F551F661F771F881FEA
:1003C000991F9A9421F79D01AE01BF01C00111242C
:0C03D0009F90CF91DF910895F894FFCF2B
:0803DC00010000000102040809
:00000001FF
